:100000000C945F000C945B040C9488040C9487009F
:100010000C9487000C9487000C9487000C94FF03C9
:100020000C9487000C9487000C9487000C94870034
:100030000C9487000C9487000C9487000C94870024
:100040000C94B5040C9487000C942B010C94720151
:100050000C9487000C9487000C9487000C94870004
:100060000C9487000C948700020000000700020136
:10007000000003040600000000000000000102046C
:10008000081020408001020408102001020408101A
:100090002004040404040404040202020202020311
:1000A000030303030300000000250028002B0000C9
:1000B000000000240027002A00003502B2021124AB
:1000C0001FBECFEFD8E0DEBFCDBF11E0A0E0B1E0B2
:1000D000E2E0FDE002C005900D92A033B107D9F730
:1000E00021E0A0E3B1E001C01D92A43FB207E1F717
:1000F00010E0CFE5D0E004C02197FE010E94790610
:10010000CD35D107C9F70E94BE020C947F060C942E
:100110000000FC0124853585F901E05CFF4F8081FA
:100120009181329620813181805C9F4F821B930B9D
:100130008F739078992324F40197806C9F6F0196B8
:100140000895FC0184859585FC01E05CFF4F4081AA
:1001500051813296208131814217530741F020812D
:100160003181FC01E20FF31F808190E008958FEF51
:100170009FEF0895FC0184859585FC01E05CFF4FAD
:10018000408151813296208131814217530781F09D
:1001900020813181DC01A20FB31F8C91208131813C
:1001A0002F5F3F4F2F7333273183208390E00895D3
:1001B0008FEF9FEF0895FC0181A1882329F0A48986
:1001C000B5898C9186FFFBCF11A20895DC011E96A4
:1001D0008D919C911F97FC01E05CFF4F4081518104
:1001E0004F5F5F4F4F735527329620813181421701
:1001F0005307D9F3FC01E05CFF4F20813181FC0102
:10020000E20FF31F60831E96ED91FC911F97E05C57
:10021000FF4F518340835696ED91FC915797208173
:1002200081E090E05F960C905F9702C0880F991F65
:100230000A94E2F7822B808381E091968C939197C8
:100240005496ED91FC91559780818064808381E084
:1002500090E0089508951F920F920FB60F92112407
:100260002F933F934F938F939F93AF93BF93EF93AE
:10027000FF938091C00082FD1CC04091C600809118
:10028000D6019091D70101968F7399272091D801BB
:100290003091D9018217930771F0A6EDB1E0ED918D
:1002A000FC911197EA56FE4F408311969C938E93D2
:1002B00002C08091C600FF91EF91BF91AF919F91D5
:1002C0008F914F913F912F910F900FBE0F901F90E4
:1002D000189580E391E00E948900892B11F00E941B
:1002E0002A0108951F920F920FB60F9211242F9397
:1002F0003F938F939F93AF93BF93EF93FF9320917F
:100300009201309193018091940190919501281769
:10031000390731F4E1ECF0E080818F7D808310C0FB
:10032000E4E9F1E0A081B181AE5ABE4F2C91808109
:10033000918101968F739927918380832093C600C2
:10034000FF91EF91BF91AF919F918F913F912F912D
:100350000F900FBE0F901F901895CF92DF92EF92E3
:10036000FF920F931F93CF93DF93EC016A017B0100
:100370004115514E6105710509F1EC89FD8981E056
:1003800090E008A002C0880F991F0A94E2F78083CA
:1003900060E079E08DE390E0A70196010E945706A6
:1003A00089019A01015011092109310936952795D2
:1003B00017950795980101151041A8F0EC89FD8962
:1003C000108260E874E88EE190E0A70196010E9437
:1003D0005706DA01C9010197A109B109B695A79598
:1003E000979587959C01E889F9893083EA89FB898B
:1003F000208319A2EE89FF89408181E090E09C0171
:100400000C8C02C0220F331F0A94E2F7242B2083A6
:10041000EE89FF8940819C010D8C02C0220F331FA1
:100420000A94E2F7242B2083EE89FF8940819C0106
:100430000E8C02C0220F331F0A94E2F7242B208374
:10044000EE89FF8920810F8C02C0880F991F0A94C2
:10045000E2F7809582238083DF91CF911F910F91E6
:10046000FF90EF90DF90CF900895E0E3F1E01382EA
:10047000128288EE93E0A0E0B0E084839583A683A7
:10048000B78385E091E09183808386E991E0958749
:10049000848782E591E09787868785EC90E0918B51
:1004A000808B84EC90E0938B828B80EC90E0958B3A
:1004B000848B81EC90E0978B868B82EC90E0918F1F
:1004C000808F86EC90E0938F828F84E0848F83E02E
:1004D000858F87E0868F85E0878F81E080A30895F0
:1004E0008F929F92AF92BF92CF92DF92EF92FF9244
:1004F0000F931F93CF93DF935C017B014C0182E04C
:10050000880E911C6501E5E0CE0ED11C00E010E0E4
:10051000F40161914F014AE050E0C7010E94C0031D
:10052000EC016EE2C7010E9410038C0F9D1F080FA3
:10053000191F8C149D0461F74AE050E0F5016581B4
:10054000C7010E94C003800F911FDF91CF911F91BF
:100550000F91FF90EF90DF90CF90BF90AF909F9062
:100560008F900895EAEDF1E085E191E09183808339
:100570001282138214821582089508950E944F05F5
:100580000E94BD020E942906C9E6D1E00E943C06F5
:100590002097E1F30E946901F9CFCF92DF92EF92A9
:1005A000FF920F931F93CF93DF9341155105B1F045
:1005B0008C01E62EF72EEA01C12CD12CD7016D91CA
:1005C0007D01D801ED91FC910190F081E02DC801F1
:1005D0000995C80ED91E219789F702C0C12CD12CCC
:1005E000C601DF91CF911F910F91FF90EF90DF90A7
:1005F000CF9008956115710581F0FB0101900020F5
:10060000E9F73197AF01461B570BDC01ED91FC91E7
:100610000280F381E02D0995089580E090E008952F
:10062000DC01ED91FC910190F081E02D0995089598
:100630000F931F93CF93DF93EC016DE00E941003A3
:100640008C016AE0CE010E941003800F911FDF91A0
:10065000CF911F910F9108950F931F93CF93DF9325
:10066000EC010E94FA028C01CE010E941803800F57
:10067000911FDF91CF911F910F9108954F925F923B
:100680006F927F929F92AF92BF92CF92DF92EF9242
:10069000FF920F931F93CF93DF93CDB7DEB7A19750
:1006A0000FB6F894DEBF0FBECDBF5C016A017B01BF
:1006B000922E19A281E0821720F00F2EFAE09F2ED1
:1006C000F02D8E010F5D1F4F492C512C612C712C88
:1006D000C701B601A30192010E9457068C2D929E7C
:1006E00080191124015011098A3010F4805D01C075
:1006F000895CD8018C93C22ED32EE42EF52EC11422
:10070000D104E104F10421F70115110591F0F8017C
:1007100001900020E9F73197AF01401B510BD50143
:10072000ED91FC910280F381E02DB801C50109959E
:1007300002C080E090E0A1960FB6F894DEBF0FBE35
:10074000CDBFDF91CF911F910F91FF90EF90DF9080
:10075000CF90BF90AF909F907F906F905F904F90A1
:1007600008952115310549F4DC01ED91FC910190CA
:10077000F081E02D642F099508950E943E030895AD
:100780009A01462F50E060E070E00E94B1030895A6
:10079000813039F018F0823051F0089510926E00D7
:1007A0000895EFE6F0E080818D7F80830895E0E793
:1007B000F0E080818D7F808381E08093B000E1EB69
:1007C000F0E08081887F846080831092B300089578
:1007D000CF93C82F809100018C1308C0E8E6F0E0A9
:1007E000E4918E2F9FEF9093000101C08FEF0E9444
:1007F000C80360E08C2F0E94F805CF9108951F92E6
:100800000F920FB60F9211242F933F934F935F9344
:100810006F937F938F939F93AF93BF93EF93FF93C8
:100820008091E3019091E401A091E501B091E6018E
:10083000892B8A2B8B2B51F18091E001E091E10112
:10084000F091E2019081892780838091E30190916A
:10085000E401A091E501B091E601181619061A0607
:100860001B06C4F48091E3019091E401A091E5019D
:10087000B091E6010197A109B1098093E30190933A
:10088000E401A093E501B093E60104C0809100016A
:100890000E94E803FF91EF91BF91AF919F918F91DB
:1008A0007F916F915F914F913F912F910F900FBE6C
:1008B0000F901F9018951F920F920FB60F92112450
:1008C0002F933F934F935F936F937F938F939F9358
:1008D000AF93BF93EF93FF938091E7019091E8016D
:1008E000892B29F0E091E701F091E8010995FF914A
:1008F000EF91BF91AF919F918F917F916F915F9198
:100900004F913F912F910F900FBE0F901F90189510
:100910001F920F920FB60F9211242F933F934F9374
:100920005F936F937F938F939F93AF93BF93EF9357
:10093000FF938091E9019091EA01892B29F0E091E0
:10094000E901F091EA010995FF91EF91BF91AF9113
:100950009F918F917F916F915F914F913F912F91D7
:100960000F900FBE0F901F9018951F920F920FB609
:100970000F9211242F933F938F939F93AF93BF9325
:100980008091EC019091ED01A091EE01B091EF0109
:100990003091EB0123E0230F2D3720F40196A11DA8
:1009A000B11D05C026E8230F0296A11DB11D20939D
:1009B000EB018093EC019093ED01A093EE01B093D5
:1009C000EF018091F0019091F101A091F201B091BD
:1009D000F3010196A11DB11D8093F0019093F101E7
:1009E000A093F201B093F301BF91AF919F918F91CA
:1009F0003F912F910F900FBE0F901F9018953FB70A
:100A0000F8948091F0019091F101A091F201B091E0
:100A1000F30126B5A89B05C02F3F19F00196A11D33
:100A2000B11D3FBFBA2FA92F982F8827820F911D84
:100A3000A11DB11DBC01CD01660F771F881F991F35
:100A4000660F771F881F991F0895CF92DF92EF924C
:100A5000FF92CF93DF936B017C010E94FF04EB01B7
:100A6000C114D104E104F10499F00E94FF046C1B4D
:100A70007D0B683E734038F081E0C81AD108E10868
:100A8000F108C851DC4FC114D104E104F10469F745
:100A9000DF91CF91FF90EF90DF90CF900895789401
:100AA00084B5826084BD84B5816084BD85B5826073
:100AB00085BD85B5816085BDEEE6F0E08081816011
:100AC0008083E1E8F0E01082808182608083808111
:100AD00081608083E0E8F0E0808181608083E1EBE9
:100AE000F0E0808184608083E0EBF0E080818160D1
:100AF0008083EAE7F0E08081846080838081826087
:100B0000808380818160808380818068808310926F
:100B1000C1000895833069F028F48130B1F082304B
:100B2000C1F008958630C9F08730E9F0843001F5CE
:100B300006C0E0E8F0E080818F7780830895E0E8E8
:100B4000F0E080818F7D8083089584B58F7784BDA8
:100B5000089584B58F7D84BD0895E0EBF0E0808139
:100B60008F7780830895E0EBF0E080818F7D808334
:100B70000895CF93DF9390E0FC01E358FF4F249159
:100B8000FC01EF56FF4F8491882379F190E0880FA4
:100B9000991FFC01E155FF4FA591B491FC01EB5564
:100BA000FF4FC591D49161110CC09FB7F8948C91FF
:100BB000E22FE0958E238C932881E223E8839FBF68
:100BC00014C0623061F49FB7F8943C91822F8095F5
:100BD00083238C93E881E22BE8839FBF06C08FB705
:100BE000F894EC91E22BEC938FBFDF91CF910895B5
:100BF0001F93CF93DF93282F30E0F901E759FF4F80
:100C00008491F901E358FF4F1491F901EF56FF4F1A
:100C1000C491CC23D1F0D62F81110E948A05EC2FEC
:100C2000F0E0EE0FFF1FEB55FF4FA591B4918FB78A
:100C3000F894D11106C09C91E12FE095E923EC9343
:100C400003C0EC91E12BEC938FBFDF91CF911F910B
:100C5000089561E08DE00E94B90540E855E260E04A
:100C600070E080E391E00E94AD0167E171E080E314
:100C700091E00E94FA02089560E08DE00E94F8057C
:100C800068EE73E080E090E00E94250561E08DE071
:100C90000E94F80568EE73E080E090E00E94250570
:100CA00064E271E080E391E00E942C030895A1E2E8
:100CB0001A2EAA1BBB1BFD010DC0AA1FBB1FEE1FD6
:100CC000FF1FA217B307E407F50720F0A21BB30B21
:100CD000E40BF50B661F771F881F991F1A9469F79D
:100CE00060957095809590959B01AC01BD01CF01F9
:100CF0000895EE0FFF1F0590F491E02D0994F894EC
:020D0000FFCF23
:100D0200FF00000000E600CD028900BA00A100DB6E
:100D12000000000000700248656C6C6F20576F7213
:100D22006C6421003132333435363738392E2E0097
:00000001FF
