:100000000C9493000C941D050C944A050C94AE0FAF
:100010000C94AE0F0C94AE0F0C94BB000C94C10466
:100020000C94BB000C94BB000C94BB000C94BB0064
:100030000C94BB000C94BB000C94BB000C94BB0054
:100040000C9477050C94BB000C945F010C94ED01AB
:100050000C94BB000C94BB000C94BB000C94BB0034
:100060000C94BB000C94BB000C94BB000C94AE0F22
:100070000C949E010C9428020C94BB000C94BB00C1
:100080000C94BB000C94BB000C94BB000C94BB0004
:100090000C94BB000C94BB000C94BB000C94BB00F4
:1000A0000C94BB000C94BB000C94BB000C94BB00E4
:1000B0000C94BB0088068C067C068206B30690066C
:1000C00096069C06A206B306A806AE06020000002D
:1000D0000700020100000304060000000000000009
:1000E00000010204081020408001020408102001D1
:1000F000020408102004040404040404040202029C
:10010000020202030303030303000000002500288A
:10011000002B0000000000240027002A0000EB0252
:10012000A3032407600911241FBECFEFD8E0DEBF70
:10013000CDBF11E0A0E0B1E0EAE1F2E202C005903B
:100140000D92A432B107D9F725E0A4E2B1E001C0D5
:100150001D92AF32B207E1F710E0C3E9D0E004C06E
:100160002197FE010E940511CF38D107C9F70E94DF
:10017000AF030C940B110C940000FC012485358511
:10018000F901E05CFF4F80819181329620813181BD
:10019000805C9F4F821B930B8F739078992324F47C
:1001A0000197806C9F6F01960895FC018485958569
:1001B000FC01E05CFF4F408151813296208131810A
:1001C0004217530741F020813181FC01E20FF31FF8
:1001D000808190E008958FEF9FEF0895FC01848562
:1001E0009585FC01E05CFF4F408151813296208172
:1001F00031814217530781F020813181DC01A20F48
:10020000B31F8C91208131812F5F3F4F2F73332794
:100210003183208390E008958FEF9FEF0895FC01D4
:1002200081A1882329F0A489B5898C9186FFFBCF11
:1002300011A20895DC011E968D919C911F97FC01DF
:10024000E05CFF4F408151814F5F5F4F4F735527F7
:1002500032962081318142175307D9F3FC01E05CCB
:10026000FF4F20813181FC01E20FF31F60831E9656
:10027000ED91FC911F97E05CFF4F518340835696B0
:10028000ED91FC915797208181E090E05F960C9072
:100290005F9702C0880F991F0A94E2F7822B808330
:1002A00081E091968C9391975496ED91FC9155979E
:1002B00080818064808381E090E0089508951F929A
:1002C0000F920FB60F9211242F933F934F938F935A
:1002D0009F93AF93BF93EF93FF938091C00082FDF4
:1002E0001CC04091C60080917402909175020196E5
:1002F0008F739927209176023091770282179307A6
:1003000071F0A4E7B2E0ED91FC911197EC5CFD4F28
:10031000408311969C938E9302C08091C600FF91FA
:10032000EF91BF91AF919F918F914F913F912F91FD
:100330000F900FBE0F901F90189508951F920F9267
:100340000FB60F9211242F933F934F938F939F9348
:10035000AF93BF93EF93FF938091C80082FD1CC0C1
:100360004091CE008091EC019091ED0101968F7348
:1003700099272091EE013091EF018217930771F0D8
:10038000ACEEB1E0ED91FC911197E455FE4F408346
:1003900011969C938E9302C08091CE00FF91EF91B5
:1003A000BF91AF919F918F914F913F912F910F905E
:1003B0000FBE0F901F90189586E491E00E94BD003B
:1003C000892B11F00E945E0184E291E00E94BD0041
:1003D000892B11F00E949D0108951F920F920FB674
:1003E0000F9211242F933F938F939F93AF93BF93BB
:1003F000EF93FF93209130023091310280913202CD
:10040000909133022817390731F4E1ECF0E0808154
:100410008F7D808310C0E2E3F2E0A081B181A05122
:10042000BE4F2C918081918101968F739927918382
:1004300080832093C600FF91EF91BF91AF919F9170
:100440008F913F912F910F900FBE0F901F90189595
:100450001F920F920FB60F9211242F933F938F93F9
:100460009F93AF93BF93EF93FF932091A801309197
:10047000A9018091AA019091AB012817390731F4A5
:10048000E9ECF0E080818F7D808310C0EAEAF1E042
:10049000A081B181A859BE4F2C9180819181019694
:1004A0008F739927918380832093CE00FF91EF91E2
:1004B000BF91AF919F918F913F912F910F900FBE60
:1004C0000F901F901895CF92DF92EF92FF920F93AB
:1004D0001F93CF93DF93EC016A017B014115514ECD
:1004E0006105710509F1EC89FD8981E090E008A0C2
:1004F00002C0880F991F0A94E2F7808360E079E0D8
:100500008DE390E0A70196010E94E31089019A0112
:10051000015011092109310936952795179507953D
:10052000980101151041A8F0EC89FD89108260E85E
:1005300074E88EE190E0A70196010E94E310DA01D1
:10054000C9010197A109B109B695A7959795879516
:100550009C01E889F9893083EA89FB89208319A203
:10056000EE89FF89408181E090E09C010C8C02C003
:10057000220F331F0A94E2F7242B2083EE89FF8990
:1005800040819C010D8C02C0220F331F0A94E2F7B8
:10059000242B2083EE89FF8940819C010E8C02C0B0
:1005A000220F331F0A94E2F7242B2083EE89FF8960
:1005B00020810F8C02C0880F991F0A94E2F7809562
:1005C00082238083DF91CF911F910F91FF90EF9055
:1005D000DF90CF900895CF92DF92EF92FF92E6E402
:1005E000F1E0138212820F2EF8EECF2EF3E0DF2E11
:1005F000E12CF12CF02DC482D582E682F78269E0ED
:1006000071E07183608384E392E09587848780EF53
:1006100091E09787868785EC90E0918B808B84ECC6
:1006200090E0938B828B80EC90E0958B848B81ECB7
:1006300090E0978B868B82EC90E0918F808F86EC98
:1006400090E0938F828F44E0448F33E0358F27E032
:10065000268F95E0978F81E080A3E4E2F1E013829A
:100660001282C482D582E682F782718360836CEA4B
:1006700071E07587648768E671E0778766876DEC5F
:1006800070E0718B608B6CEC70E0738B628B68EC4C
:1006900070E0758B648B69EC70E0778B668B6AEC2D
:1006A00070E0718F608F6EEC70E0738F628F448F9B
:1006B000358F268F978F80A3FF90EF90DF90CF909C
:1006C00008958F929F92AF92BF92CF92DF92EF9256
:1006D000FF920F931F93CF93DF935C017B014C013B
:1006E00082E0880E911C6501E5E0CE0ED11C00E091
:1006F00010E0F40161914F014AE050E0C7010E940F
:100700007504EC016EE2C7010E94EB038C0F9D1F84
:10071000080F191F8C149D0461F74AE050E0F501A1
:100720006581C7010E947504800F911FDF91CF91F1
:100730001F910F91FF90EF90DF90CF90BF90AF90FF
:100740009F908F900895E8E7F2E089E191E091832E
:1007500080831282138214821582089508950E9464
:100760001D060E94AE030E949210CCEDD1E00E94C3
:10077000E2102097E1F30E94DC01F9CFCF92DF92E3
:10078000EF92FF920F931F93CF93DF934115510583
:10079000B1F08C01E62EF72EEA01C12CD12CD70145
:1007A0006D917D01D801ED91FC910190F081E02DDA
:1007B000C8010995C80ED91E219789F702C0C12C1E
:1007C000D12CC601DF91CF911F910F91FF90EF9037
:1007D000DF90CF900895DC01ED91FC910190F081C4
:1007E000E02D099508954F925F926F927F929F92AC
:1007F000AF92BF92CF92DF92EF92FF920F931F932F
:10080000CF93DF93CDB7DEB7A1970FB6F894DEBFD5
:100810000FBECDBF5C016A017B01922E19A281E05F
:10082000821720F00F2EFAE09F2EF02D8E010F5D23
:100830001F4F492C512C612C712CC701B601A3010B
:1008400092010E94E3108C2D929E80191124015078
:1008500011098A3010F4805D01C0895CD8018C9345
:10086000C22ED32EE42EF52EC114D104E104F104DE
:1008700021F70115110591F0F80101900020E9F729
:100880003197AF01401B510BD501ED91FC910280D6
:10089000F381E02DB801C501099502C080E090E028
:1008A000A1960FB6F894DEBF0FBECDBFDF91CF91FA
:1008B0001F910F91FF90EF90DF90CF90BF90AF907E
:1008C0009F907F906F905F904F9008952115310514
:1008D00049F4DC01ED91FC910190F081E02D642F51
:1008E000099508950E94F30308959A01462F50E058
:1008F00060E070E00E94660408958230A1F028F460
:10090000882341F0813049F008958330E9F0843044
:10091000F1F0089510926E000895EFE6F0E0808106
:100920008D7F80830895E0E7F0E080818D7F808374
:1009300081E08093B000E1EBF0E08081887F84600B
:1009400080831092B3000895109271000895109260
:1009500072000895CF93C82F809100018C1308C0B6
:10096000ECECF0E0E4918E2F9FEF9093000101C03A
:100970008FEF0E947D0460E08C2F0E94F306CF91E0
:1009800008951F920F920FB60F9211242F933F9349
:100990004F935F936F937F938F939F93AF93BF9387
:1009A000EF93FF938091810290918202A091830244
:1009B000B0918402892B8A2B8B2B51F180917E027E
:1009C000E0917F02F091800290818927808380915D
:1009D000810290918202A0918302B0918402181644
:1009E00019061A061B06C4F48091810290918202B6
:1009F000A0918302B09184020197A109B10980936B
:100A0000810290938202A0938302B093840204C077
:100A1000809100010E94AA04FF91EF91BF91AF91D4
:100A20009F918F917F916F915F914F913F912F9106
:100A30000F900FBE0F901F9018951F920F920FB638
:100A40000F9211242F933F934F935F936F937F9354
:100A50008F939F93AF93BF93EF93FF938091850202
:100A600090918602892B29F0E0918502F09186020F
:100A70000995FF91EF91BF91AF919F918F917F91D8
:100A80006F915F914F913F912F910F900FBE0F90FB
:100A90001F9018951F920F920FB60F9211242F934B
:100AA0003F934F935F936F937F938F939F93AF93F6
:100AB000BF93EF93FF938091870290918802892BD7
:100AC00029F0E0918702F09188020995FF91EF915A
:100AD000BF91AF919F918F917F916F915F914F9156
:100AE0003F912F910F900FBE0F901F9018951F925E
:100AF0000F920FB60F9211242F933F938F939F93D2
:100B0000AF93BF9380918A0290918B02A0918C0247
:100B1000B0918D023091890223E0230F2D3720F40C
:100B20000196A11DB11D05C026E8230F0296A11D47
:100B3000B11D2093890280938A0290938B02A09327
:100B40008C02B0938D0280918E0290918F02A091C1
:100B50009002B09191020196A11DB11D80938E0269
:100B600090938F02A0939002B0939102BF91AF91A6
:100B70009F918F913F912F910F900FBE0F901F90DB
:100B800018952FB7F89460918A0270918B0280912A
:100B90008C0290918D022FBF08953FB7F8948091F9
:100BA0008E0290918F02A0919002B091910226B591
:100BB000A89B05C02F3F19F00196A11DB11D3FBF95
:100BC000BA2FA92F982F8827820F911DA11DB11D23
:100BD000BC01CD01660F771F881F991F660F771F15
:100BE000881F991F0895CF92DF92EF92FF92CF93C3
:100BF000DF936B017C010E94CD05EB01C114D10490
:100C0000E104F10499F00E94CD056C1B7D0B683E58
:100C1000734038F081E0C81AD108E108F108C851E2
:100C2000DC4FC114D104E104F10469F7DF91CF91E5
:100C3000FF90EF90DF90CF900895789484B5826014
:100C400084BD84B5816084BD85B5826085BD85B570
:100C5000816085BDEEE6F0E0808181608083E1E81F
:100C6000F0E0108280818260808380818160808357
:100C7000E0E8F0E0808181608083E1EBF0E080815A
:100C800084608083E0EBF0E0808181608083E1E933
:100C9000F0E0808182608083808181608083E0E9F0
:100CA000F0E0808181608083E1EAF0E08081826011
:100CB0008083808181608083E0EAF0E080818160D0
:100CC0008083EAE7F0E080818460808380818260B5
:100CD000808380818160808380818068808310929E
:100CE000C100089590E0FC013197EC30F105D8F592
:100CF000E65AFF4F0C940511E0E8F0E080818F7711
:100D000080830895E0E8F0E080818F7D80830895FE
:100D100084B58F7784BD089584B58F7D84BD089593
:100D2000E0EBF0E080818F7780830895E0EBF0E0E6
:100D300080818F7D80830895E0E9F0E080818F7766
:100D400080830895E0E9F0E080818F7D80830895BD
:100D5000E0EAF0E080818F7780830895E0EAF0E0B8
:100D600080818F7D80830895CF93DF9390E0FC0195
:100D7000EF51FF4F2491FC01EB50FF4F84918823EA
:100D800079F190E0880F991FFC01ED5EFE4FA5916F
:100D9000B491FC01E75FFE4FC591D49161110CC085
:100DA0009FB7F8948C91E22FE0958E238C93288145
:100DB000E223E8839FBF14C0623061F49FB7F894C8
:100DC0003C91822F809583238C93E881E22BE883EA
:100DD0009FBF06C08FB7F894EC91E22BEC938FBFC6
:100DE000DF91CF9108951F93CF93DF93282F30E0A9
:100DF000F901E353FF4F8491F901EF51FF4F149133
:100E0000F901EB50FF4FC491CC23D1F0D62F8111C3
:100E10000E947206EC2FF0E0EE0FFF1FE75FFE4F1F
:100E2000A591B4918FB7F894D11106C09C91E12F90
:100E3000E095E923EC9303C0EC91E12BEC938FBF99
:100E4000DF91CF911F910895E2E9F2E015821682B9
:100E50001186138682E090E0A0E0B0E08487958759
:100E6000A687B78713A215A614A68FE191E093A7D2
:100E700082A717A608958EBD00000DB407FEFDCF12
:100E80008EB508958FEF8EBD00000DB407FEFDCF27
:100E90008EB5089561E0FC0184810E94F306809183
:100EA000DB028823A1F01092DB0280912D058823BC
:100EB00071F09FB7F89480912D05813029F48091CD
:100EC0002B058DBB9FBF089580912B058FBF089583
:100ED0002091DB02211120C021E02093DB02ECED08
:100EE000F2E03081218140912D05442399F04FB7E4
:100EF000F89450912D05513059F45DB350932B0562
:100F00006DB350912C05509556235DBB4FBF02C069
:100F100040932B053CBD2DBD60E0FC0184810E9407
:100F2000F3060895CF93DF93FC0126812223D1F0AD
:100F3000EC01878190859C012F5F3F4F308727838D
:100F40008230924058F40E9442072F813885C901AF
:100F5000019698878F8322303240A8F3CE010E94F9
:100F60004A071E82DF91CF9108950F931F93CF936D
:100F7000DF93EB010E94C1058B010E9442078F3F66
:100F800049F00E94C105601B710B6C177D07A8F327
:100F900080E001C081E0DF91CF911F910F91089512
:100FA000BF92CF92DF92EF92FF920F931F93CF9356
:100FB000DF938C01B62E69017A010E949207C80165
:100FC0000E9468076CE271E0C8010E94B5078B2D92
:100FD00080640E943B07C8E1D0E0D701C6010C2E17
:100FE00004C0B695A795979587950A94D2F70E9465
:100FF0003B072897C83F8FEFD80779F7BB2029F028
:10100000E8E0BE1204C087E803C085E901C08FEFA5
:101010000E943B07C0E001C0CF5F0E944207F80179
:101020008287882314F4CF3FB9F7DF91CF911F91C6
:101030000F91FF90EF90DF90CF90BF9008950F93A6
:101040001F93CF93DF93EC010E94C1058B010AC06F
:101050000E94C105601B710B6D32714018F08FE06A
:101060008D8309C00E9442078A878F3F89F38E3F94
:1010700039F08DE08D83CE010E944A0780E001C0E7
:1010800081E0DF91CF911F910F910895CF92DF9270
:10109000EF92FF920F931F93CF93DF93EC016901BF
:1010A0000115110509F46CC0C801820F931F81302E
:1010B000924008F060C08E81882371F08881998108
:1010C000AA81BB8184179507A607B70729F48F81EA
:1010D0009885C816D90620F5488359836A837B838F
:1010E0008B85833049F0032E39E0440F551F661F6E
:1010F000771F3A95D1F7302D9A01AB0161E1CE010E
:101100000E94D007882319F083E08D8334C0CE017C
:101110000E941F08882379F118861F8281E08E8340
:101120008F8198858C159D0550F40E9442078F8110
:101130009885019698878F838C159D05B0F367017C
:10114000E00EF11E0E944207F60181936F01EE1539
:10115000FF05C1F78F819885080F191F18870F8326
:101160008985882319F00115124060F0CE010E9494
:10117000920781E008C0CE010E944A0780E003C0C8
:1011800081E001C081E0DF91CF911F910F91FF902D
:10119000EF90DF90CF900895EF92FF920F931F93FF
:1011A000790100E012E020E030E00E9446081F9143
:1011B0000F91FF90EF900895EF92FF920F931F937E
:1011C000CF93DF937C01862F8A010E943B07E801C1
:1011D0001E5F89910E943B07C017D107D1F78FEF9F
:1011E0000E943B078FEF0E943B070E944207F701D6
:1011F0008287982F9F71953039F081E18583C701EF
:101200000E944A0780E001C081E0DF91CF911F91E9
:101210000F91FF90EF9008950F931F93CF93DF935B
:10122000EC018901411551056105710519F482E14F
:101230008D833DC08B85833049F0032E39E0440F08
:10124000551F661F771F3A95D1F7302D9A01AB01D4
:1012500068E1CE010E94D007882319F084E08D83D5
:1012600026C0A8016EEFCE010E94DC088823F9F0A9
:1012700068E572E0CE010E94B507811103C085E1E7
:101280008D8315C020E030E0A9016DE0CE010E9401
:10129000D007811104C00E944207882319F084E11D
:1012A0008D8305C0CE010E944A0781E004C0CE01B3
:1012B0000E944A0780E0DF91CF911F910F9108951E
:1012C000ECEDF2E080E5808311820895CF93DF9307
:1012D000EC019C012A5F3F4F41E050E060E070E08C
:1012E0008B8D9C8D0E94930E8823B1F08F89988DF1
:1012F000A98DBA8D892B8A2B8B2B69F48E819F81C6
:10130000A885B9858F8B988FA98FBA8F8C818068BB
:101310008C8381E001C081E0DF91CF910895CF936C
:10132000DF93EC01462F6E857F85888999890E941D
:10133000FD0C882341F08A8920E2829FC00111249C
:1013400089519D4F02C080E090E0DF91CF910895D8
:101350008F929F92AF92BF92CF92DF92EF92FF92C5
:101360000F931F93CF93DF93EC018D81882309F4B2
:101370007FC00B891C892D893E8904171507260714
:10138000370708F474C0823031F44A875B876C8772
:101390007D8781E06DC0411551056105710551F4EE
:1013A0001E821F82188619861A861B861C861D8639
:1013B00081E05EC08A849B84AC84BD84EB8DFC8D0F
:1013C000858590E009969501840101501109210954
:1013D0003109082E04C036952795179507950A946C
:1013E000D2F76A017B01E1E0CE1AD108E108F108E9
:1013F00004C0F694E794D794C7948A95D2F7C016A0
:10140000D106E206F30620F089288A288B2849F4C1
:101410008F89988DA98DBA8D8E839F83A887B98770
:1014200016C0C01AD10AE20AF30A11C04E815F81C8
:101430006885798598018B8D9C8D0E94360D91E091
:10144000C91AD108E108F108811106C011C04A018A
:101450005B018E010A5F1F4FC114D104E104F10446
:1014600029F78A869B86AC86BD8681E001C080E034
:10147000DF91CF911F910F91FF90EF90DF90CF9070
:10148000BF90AF909F908F9008950F931F93CF932D
:10149000DF93FC0185818823D1F1EF0184818823CA
:1014A00094F561E0CF010E948F098C01892B71F1C5
:1014B0008D81823048F48B899C89AD89BE89F80181
:1014C000848F958FA68FB78F8F89988DF801938F12
:1014D000828F8F89988DA98DBA8DB58BA48BE09161
:1014E000DE02F091DF02309759F0B8016A5E7F4F5B
:1014F000C80148960995F801808D918D938B828B58
:101500008C818F778C830E94C20C01C080E0DF91B8
:10151000CF911F910F9108952F923F924F925F921A
:101520006F927F928F929F92AF92BF92CF92DF92F3
:10153000EF92FF920F931F93CF93DF9300D000D0D1
:1015400000D0CDB7DEB78C011B015E834D83DC017B
:1015500015968C911597813009F07DC114968C9168
:10156000149781FF78C182FF18C053964D915D9109
:101570006D917C9156971A968D919D910D90BC918D
:10158000A02D84179507A607B70709F474C1C801F1
:101590000E94A809882309F45EC1ED81FE81EF2B2A
:1015A00009F42DC1CD80DE80A12C6894BB24B1F854
:1015B000D8011A964D915D916D917C911D975B9626
:1015C000ED91FC915C972A013B01032E39E0769462
:1015D0006794579447943A95D1F7302D9481915060
:1015E00094214A01B1E09B22911156C081149104CB
:1015F00009F074C1D80116964D915D916D917C9161
:1016000019974115510561057105B1F457968D91F2
:101610009D910D90BC91A02D0097A105B10531F4CD
:10162000C8010E94660981112CC115C1F801868389
:101630009783A087B18725C19E012F5F3F4FCF01C0
:101640000E94360D811102C090E072C149815A8119
:101650006B817C81D8015B96ED91FC915C978789C9
:10166000803129F088EF9FEFAFEFBFE004C088EF33
:101670009FEFA0E0B0E0481759076A077B0730F0FA
:10168000C8010E9466098111FCC0E5C0F8014683CB
:10169000578360877187F5C095012819390976014C
:1016A0002C153D0508F47901D80116964D905D90F2
:1016B0006D907C901997B2E04B1A5108610871083F
:1016C000058404C0440C551C661C771C0A94D2F790
:1016D0004685578560897189440E551E661E771EA2
:1016E000490E511C611C711CE114E2E0FE0641F53B
:1016F0008091010190910201A0910301B091040138
:1017000084159505A605B70559F48FEF9FEFDC0109
:101710008093010190930201A0930301B09304010F
:101720009101B301A2018091E5029091E6020E942D
:101730000C09882309F48FC09EEF391A75014CC03B
:101740008114910429F5D8011A964D915D916D91FE
:101750007C911D9753968D919D910D90BC91A02DDC
:10176000481759076A077B0798F00E94C20C882324
:1017700009F471C04092010150920201609203018C
:10178000709204018091E40281608093E40208C0B9
:1017900041E0C301B2010E94FD0C882309F45BC043
:1017A000C40189519D4FAC014E0D5F1D84179507F3
:1017B00099F0F101DC0191012E0D3F1D61916D93B6
:1017C000E217F307D9F70196E1E0F0E0E81BF90B27
:1017D0004E0F5F1F240E351ECE18DF08F8018285DC
:1017E0009385A485B5858E0D9F1DA11DB11D828792
:1017F0009387A487B587C114D10409F0D9CEF80125
:1018000082859385A485B5854389548965897689C0
:10181000481759076A077B0740F4838B948BA58B85
:10182000B68B8481806884830DC08091DE029091A4
:10183000DF02892B39F02D813E81232B19F0848121
:1018400080688483F801848183FF0FC0C8010E94EF
:10185000450A81110DC081E090E0D80113969C9358
:101860008E93129780E090E063C08D819E8160C06E
:101870008D819E815DC0ED81FE81EF2B09F092CEBE
:10188000E1CF7601F1E0CF16F2E0DF0608F0750156
:10189000D8015B96ED91FC915C9716964D905D900A
:1018A0006D907C901997B2E04B1A5108610871084D
:1018B000058404C0440C551C661C771C0A94D2F79E
:1018C00086859785A089B189480E591E6A1E7B1EA0
:1018D000E114E2E0FE0609F036CF0ACFC50188190F
:1018E000990976018C159D0508F47C01D80116969E
:1018F0004D905D906D907C901997B2E04B1A510815
:1019000061087108058404C0440C551C661C771CD2
:101910000A94D2F786859785A089B189480E591E09
:101920006A1E7B1EE114E2E0FE0609F031CFE0CE34
:1019300026960FB6F894DEBF0FBECDBFDF91CF91D4
:101940001F910F91FF90EF90DF90CF90BF90AF90DD
:101950009F908F907F906F905F904F903F902F90CF
:101960000895CF93DF931F92CDB7DEB7698341E02F
:1019700050E0BE016F5F7F4F0E948C0A0F90DF9195
:10198000CF9108958091E4028823A9F1409101014B
:1019900050910201609103017091040127EE32E041
:1019A0008091E5029091E6020E940C09882321F1C2
:1019B0004091E0025091E1026091E2027091E302F5
:1019C000411551056105710591F027EE32E08091D6
:1019D000E5029091E6020E940C09882369F01092BA
:1019E000E0021092E1021092E2021092E3021092E1
:1019F000E40281E0089581E00895CF92DF92EF92B2
:101A0000FF92CF936B017C01C42F809101019091D3
:101A10000201A0910301B09104018C159D05AE0552
:101A2000BF05C1F00E94C20C8823D1F027EE32E03E
:101A3000B701A6018091E5029091E6020E94CC08D0
:101A4000882371F0C0920101D0920201E09203015B
:101A5000F09204018091E402C82BC093E40281E07B
:101A6000CF91FF90EF90DF90CF9008958F929F924B
:101A7000AF92BF92CF92DF92EF92FF920F931F939C
:101A8000CF93DF93E901FC0101851285238534851D
:101A90000F5F1F4F2F4F3F4F0417150726073707BC
:101AA00008F477C08E016A017B01EC018389948977
:101AB000A589B68927892031D1F4452F562F672F64
:101AC00077274A015B01880E991EAA1EBB1EC5011D
:101AD000B4018090010190900201A0900301B090A8
:101AE0000401681579058A059B05F1F425C0689401
:101AF00016F876956795579547951694D1F74A014C
:101B00005B01880E991EAA1EBB1EC501B401809000
:101B1000010190900201A0900301B09004016815AA
:101B200079058A059B05E1F040E00E94FD0C8823C1
:101B300089F18F898031A1F4DD24EE24FF24C601D0
:101B4000880F991FFC01E951FD4F80819181A0E030
:101B5000B0E0F80180839183A283B38381E01AC04F
:101B6000E894C7F8DD24EE24FF24C601880F991FEE
:101B7000880F991FFC01E951FD4F80819181A2815D
:101B8000B381BF70F80180839183A283B38381E026
:101B900001C080E0DF91CF911F910F91FF90EF90F6
:101BA000DF90CF90BF90AF909F908F9008954F920D
:101BB0005F926F927F928F929F92AF92BF92CF92DD
:101BC000DF92EF92FF920F931F93CF93DF93EC017D
:101BD0006A017B0128013901423051056105710517
:101BE00008F48BC089859A85AB85BC850196A11DBB
:101BF000B11D84179507A607B70708F480C08B8925
:101C00009C89AD89BE892F892031C1F4852E962EFD
:101C1000A72EBB24880E991EAA1EBB1E809101010F
:101C200090910201A0910301B091040188169906D8
:101C3000AA06BB06F1F44C015D0126C04A015B0116
:101C4000689416F8B694A794979487941694D1F74D
:101C5000880E991EAA1EBB1E80910101909102015F
:101C6000A0910301B091040188169906AA06BB064B
:101C7000B9F040E0C501B4010E94FD0C882309F4CD
:101C800041C08F89803171F4DD24EE24FF24C60128
:101C9000880F991FFC01E951FD4F5182408213C00A
:101CA0004C015D01E894C7F8DD24EE24FF24C60151
:101CB000880F991F880F991FFC01E951FD4F408241
:101CC0005182628273828091E40281608093E40297
:101CD0008A898230B0F08D819E81AF81B885880E6F
:101CE000991EAA1EBB1E8092E0029092E102A09271
:101CF000E202B092E30281E005C080E003C080E030
:101D000001C081E0DF91CF911F910F91FF90EF9083
:101D1000DF90CF90BF90AF909F908F907F906F900B
:101D20005F904F9008952F923F924F925F926F92E3
:101D30007F928F929F92AF92BF92CF92DF92EF925B
:101D4000FF920F931F93CF93DF93CDB7DEB72F97FB
:101D50000FB6F894DEBF0FBECDBF1C01F901808025
:101D60009180A280B38081149104A104B10439F060
:101D70002FEF821A920AA20AB20A1D860DC0DC0158
:101D80008D909D90AD90BC90B1E0BD8741305105E4
:101D90006105710509F01D86D10119960D911D91FE
:101DA0002D913C911C97D901C8010196A11DB11D2F
:101DB0008D839E83AF83B887012B022B032B09F4FD
:101DC0005FC0FF87EE8749875A876B877C877501DD
:101DD0006401412C512C320112E000E02D813E8142
:101DE0004F8158852C153D054E055F0540F4C12EE9
:101DF000D02EE12CF12C812E902EA12CB12C9E0105
:101E00002F5F3F4FB701A601C1010E94360D882305
:101E1000B9F189819A81AB81BC81892B8A2B8B2B6B
:101E200041F0460157013FEF831A930AA30AB30A10
:101E300012C0D701C6010196A11DB11D88199909CB
:101E4000AA09BB0929853A854B855C8582179307CA
:101E5000A407B507B9F03FEF431A530A630A730AA0
:101E60004FEFC41AD40AE40AF40AF101818592857D
:101E7000A385B485481659066A067B0608F4AECFDA
:101E800080E053C00FEF1FEF2FEF3FE0B701A60137
:101E9000C1010E94D70D811112C047C09701860170
:101EA00068017901F1E0CF1AD108E108F108B70122
:101EB000A601C1010E94D70D811107C036C08C1444
:101EC0009D04AE04BF0450F307C0970186018C1433
:101ED0009D04AE04BF0420F3AE85BF854D915D9196
:101EE0006D917C91411551056105710539F09501A0
:101EF0008401C1010E94D70D8823B9F0EE85FF85CA
:101F000080829182A282B382FD85FF2369F02FEF48
:101F1000821A920AA20AB20AD1018D929D92AD92C2
:101F2000BC92139781E001C081E02F960FB6F89420
:101F3000DEBF0FBECDBFDF91CF911F910F91FF90FC
:101F4000EF90DF90CF90BF90AF909F908F907F9059
:101F50006F905F904F903F902F9008951F920F9237
:101F60000FB60F9211242F933F934F935F936F936C
:101F70007F938F939F93AF93BF93CF93DF93EF9311
:101F8000FF93A0912905B0912A05109709F481C00B
:101F90005E968C915E9781FF0DC01E96ED91FC912F
:101FA0001F9790811D968C911D97982381E071F465
:101FB00080E00CC01E96ED91FC911F9790811D96BC
:101FC0008C911D97982381E009F080E0882309F423
:101FD00060C05396ED91FC915497908155968C91E9
:101FE000559780958923808356968D919C9157971C
:101FF0000197F1F758966D917C9159971E96CD9166
:10200000DC911F971D965C911D9738E040E0FB0125
:102010003197F1F7842F90E095958795482F288187
:10202000252309F04068315091F75E968C915E97B8
:1020300081FD40958091E80490E001968F7390783F
:10204000992324F40197806C9F6F01962091E704F7
:10205000281749F0E091E804F0E0E751FB4F408396
:102060008093E80407C05E968C915E9781605E96CF
:102070008C935E975A968D919C915B970197F1F79F
:102080005396ED91FC915497908155968C91892BA4
:102090008083FF91EF91DF91CF91BF91AF919F919D
:1020A0008F917F916F915F914F913F912F910F9001
:1020B0000FBE0F901F901895CF93CFB7F8948091D3
:1020C0002E05811127C0EFEFF0E08491EBEEF0E0F8
:1020D0009491E82FF0E0EE0FFF1FED5EFE4FA5910B
:1020E000B491EC91E92321F461E08AE00E94F306C7
:1020F00061E08AE00E94B4068CB580618CBD8CB52D
:1021000080648CBD61E08DE00E94B40661E08BE0EC
:102110000E94B40680912E058F5F80932E05CFBF5D
:10212000CF910895CF93DF9300D000D000D0CDB7EA
:10213000DEB7259A2D9840E052EC61E070E086E42D
:1021400091E00E9463020E945C108CB58F7D8CBD73
:102150008CB5837F8CBD8CB58C7F81608CBD8DB53B
:102160008E7F8DBD19821A821B828FEF8C831D8218
:102170001E8203E00F2EF8EAEF2EF02D0F2EF1E66F
:10218000FF2EF02D10E02E2D3F2D41E050E04C0FA2
:102190005D1F400F511D0BC091919EBD0DB407FEF8
:1021A000FDCF8F5F8330C1F72150310919F0FA015B
:1021B000812FF2CF61E070E080E090E00E94F305B3
:1021C0000150E1CF0895A1E21A2EAA1BBB1BFD010D
:1021D0000DC0AA1FBB1FEE1FFF1FA217B307E40706
:1021E000F50720F0A21BB30BE40BF50B661F771F5E
:1021F000881F991F1A9469F760957095809590953E
:102200009B01AC01BD01CF010895EE0FFF1F0590AA
:0A221000F491E02D0994F894FFCF3B
:10221A00FFFFFFFFFF000000001A01BE03BD00EE32
:10222A0000D5000F0100000000610300000000B1AA
:04223A000CBE0300D3
:00000001FF
